:020000040000FA
:040000000128FE2FA6
:100F76004F0196019701980199019A019B0108007A
:100F8600623051018D008F01910102309300900172
:100F9600920108008731BB2787318731D7278731F0
:100FA6008731C3278731080040019801313092000C
:100FB60011307E01B800B901BA013730BB003F30AD
:100FC600BC000800F001F1018731CD2787314001CF
:100FD6008C1EEE2FEF2FF12FF009F1097008710426
:100FE6000319F62FF72FFA2F98141811EA2F9810D5
:0A0FF6001815EA2F01284001E52F2D
:020000040001F9
:0A000E00EC3FFF3F9F3FFF3FFF3F25
:00000001FF
